:100000000C94BF000C94D4000C94D4000C94D40035
:100010000C94D4000C94D4000C94D4000C94D40010
:100020000C94D4000C94D4000C94D4000C94D40000
:100030000C94D4000C94D4000C94D4000C94D400F0
:100040000C94D4000C94D4000C94D4000C94D400E0
:100050000C94D4000C94D4000C94D4000C94D400D0
:100060000C94D4000C94D4000C94D4000C94D400C0
:100070000C94D4000C94D4000C94D4006E616E00E7
:10008000696E660000407A10F35A00A0724E18099B
:100090000010A5D4E80000E87648170000E40B54EF
:1000A000020000CA9A3B000000E1F50500008096BE
:1000B0009800000040420F000000A08601000000F0
:1000C000102700000000E8030000000064000000AA
:1000D00000000A00000000000100000000002C7673
:1000E000D888DC674F0823DFC1DFAE59E1B1B7968E
:1000F000E5E3E453C63AE651997696E8E6C28426EB
:10010000EB898C9B62ED407C6FFCEFBC9C9F40F2C6
:10011000BAA56FA5F490055A2AF75C936B6CF96742
:100120006DC11BFCE0E40D47FEF520E6B500D0ED07
:10013000902E0300943577050080841E080000206F
:100140004E0A000000C80C333333330F986E12830D
:100150001141EF8D2114893BE65516CFFEE6DB18E1
:10016000D1844B381BF77C1D901DA4BBE4242032A6
:1001700084725E228100C9F124ECA1E53D2711249F
:100180001FBECFEFD8E0DEBFCDBF11E0A0E0B1E0F1
:10019000E6EFF8E102C005900D92AA36B107D9F753
:1001A0000E9467030C94790C0C940000E8E8F0E0DE
:1001B00011821082808191819093870080938600C4
:1001C000559A82E8809380008BE1809381000895A6
:1001D0009B01AC01559A60E070E080E89FE30E94CB
:1001E0005B0820E034E244E758E40E9440090E94A2
:1001F000C308E6E8F0E07183608380819181969581
:10020000879590938900809388000895E8E8F0E04E
:100210001182108280819181909387008093860063
:1002200055980895CF93DF93EC01FC01EE0FFF1F6B
:10023000EE0FFF1FEB5CFE4F608171818281938125
:100240000E94E800C330D10509F440C0C430D10594
:100250004CF4C130D10511F1C230D1055CF5CD2B84
:1002600089F06FC0C530D10509F448C0C530D1054B
:100270000CF438C0C630D10509F44CC0279709F0FA
:1002800060C054C0109A80EA9FE020E931E0F90193
:100290003197F1F70197D9F7109853C0119A80EA76
:1002A0009FE020E931E0F9013197F1F70197D9F7A3
:1002B000119847C0129A80EA9FE020E931E0F901E5
:1002C0003197F1F70197D9F712983BC0139A80EA5A
:1002D0009FE020E931E0F9013197F1F70197D9F773
:1002E00013982FC0149A80EA9FE020E931E0F901C9
:1002F0003197F1F70197D9F7149823C0159A80EA3E
:100300009FE020E931E0F9013197F1F70197D9F742
:10031000159817C0169A80EA9FE020E931E0F901AC
:100320003197F1F70197D9F716980BC0179A80EA21
:100330009FE020E931E0F9013197F1F70197D9F712
:1003400017981092890010928800809188009091EF
:1003500089009093870080938600559888EB9BE0F6
:1003600020E931E0F9013197F1F70197D9F7DF91F1
:10037000CF91089582B18FEF82B980E197E220E9B1
:1003800031E0F9013197F1F70197D9F782B112B84D
:1003900088E893E120E931E0F9013197F1F701971D
:1003A000D9F70895EF92FF920F931F93182F092FFB
:1003B0007B01E82FF92F80E1DF011D928A95E9F793
:1003C000812F60E071E00E94500B812F902FB701C8
:1003D0000E94450B80E0612F702F0E949C04812FAA
:1003E000902F67E071E00E94500B80E4612F702F26
:1003F0000E949C041F910F91FF90EF900895CF925F
:10040000DF92EF92FF920F931F93CF93DF938C01B4
:100410006B0188E893E120E931E0F9013197F1F7C8
:100420000197D9F7C5E5D1E040E9E42E41E0F42E8B
:10043000688179818A819B810E94E80088EB9BE03A
:10044000F7013197F1F70197D9F7109289001092CF
:100450008800809188009091890090938700809314
:1004600086005598249681E0C536D80709F7C8015B
:1004700067E171E00E94500B80E0B8010E949C048B
:10048000C80168E271E00E94500BC801B6010E94E9
:10049000450B80E4B8010E949C040E94BA01E7CF9A
:1004A0008F929F92AF92BF92CF92DF92EF92FF9284
:1004B0000F931F93CF93DF934B015A0169017C0186
:1004C00000E010E0189903C0C0E0D0E007C019991F
:1004D00003C0C1E0D0E002C0CFEFDFEF1A9903C044
:1004E000C2E0D0E00EC01B9903C0C3E0D0E009C059
:1004F0001C9903C0C4E0D0E004C01D9902C0C5E04F
:10050000D0E01E9903C0C6E0D0E006C01F9B1BC010
:100510008FEFCF3FD807B1F2CE010E941201F70151
:1005200080819181C817D90721F0C501B6010E94C9
:10053000FF0182E090E0E80EF91E0815190531F080
:100540000F5F1F4FBFCFC7E0D0E0E6CFDF91CF9165
:100550001F910F91FF90EF90DF90CF90BF90AF90E1
:100560009F908F9008952F923F924F925F926F923B
:100570007F928F929F92AF92BF92CF92DF92EF9233
:10058000FF920F931F93DF93CF93CDB7DEB7CD5D6F
:10059000D0400FB6F894DEBF0FBECDBF10928900D9
:1005A0001092880080918800909189009093870034
:1005B00080938600559864E1462E512C4C0E5D1EAA
:1005C0004201CC24DD243E010894611C711C54E0DE
:1005D000252E312C2C0E3D1EC201C452DF4F488205
:1005E000CC5DD040C352DF4F9883CD5DD0405601E3
:1005F0000894A11CB11CC501B3014AE050E00E945F
:10060000620BC101B3010E94D2010E94BA010E9493
:10061000520A68E070E00E94A309F401918380838C
:10062000720100E010E0F701819191917F010E9439
:1006300012010F5F1F4FC016D106ACF7C452DF4F37
:100640008881CC5DD040C352DF4F9881CD5DD040D2
:10065000B601A10193010E94500280E197E2E0E916
:10066000F1E03197F1F70197D1F782E090E0880E41
:10067000991E94E6A916B10411F06501B8CFC352D2
:10068000DF4F0FB6F894DEBF0FBECDBFCF91DF9125
:100690001F910F91FF90EF90DF90CF90BF90AF90A0
:1006A0009F908F907F906F905F904F903F902F9092
:1006B00008950E94B20481B18FEF81B992B112B84E
:1006C00094B114B895B185B9559A1BB8089580EDC9
:1006D00097E00E94570A78940E9459030E94D6001E
:1006E0000E94B30280E090E00895409A28B1482F1C
:1006F000441F4427441F440F440F440F2778422BC4
:10070000282F229526952695237030E02170307091
:10071000A4E0220F331FAA95E1F7422B282F229540
:100720002695277030E021703070F5E0220F331FDE
:10073000FA95E1F7422B282F22952F7030E0217097
:100740003070E6E0220F331FEA95E1F7422B48B9FB
:1007500000C000C0409800C000C0409A48B1282F97
:1007600030E02170307076E0220F331F7A95E1F788
:100770004778422B282F26952695269530E0217024
:10078000307063E0220F331F6A95E1F7422B282F68
:100790002695269530E02170307054E0220F331FEB
:1007A0005A95E1F7422B869590E08170907025E094
:1007B000880F991F2A95E1F7482B48B900C000C05F
:1007C000409800C000C00895FF920F931F9387B117
:1007D000877887B988B1877888B9409A00C000C007
:1007E00086B126B146B1E6B1409800C000C0409A3B
:1007F00000C000C066B1A6B106B1F6B0409800C016
:1008000000C097B1986797B9869586958695879524
:1008100088278795F294F694F69473E0F72291E096
:10082000F9228F2922952F7030E02170307056E028
:10083000220F331F5A95E1F7822B42954695477058
:1008400050E04170507035E0440F551F3A95E1F784
:10085000842BE295E695E695E370F0E0E170F070A8
:1008600024E0EE0FFF1F2A95E1F78E2B6695669523
:10087000669570E06170707093E0660F771F9A95CF
:10088000E1F7862BA295AF70B0E0A170B070AA0F0F
:10089000BB1FAA0FBB1F8A2B02950695077010E09D
:1008A00001701070000F111F802B1F910F91FF908E
:1008B0000895429A419A00C000C00E94E40308953E
:1008C0004298419A00C000C00E94E40308950E942B
:1008D0006004881F8827881F08950E946704882362
:1008E000E1F708951F93182F0E946D04429A4198D2
:1008F00000C000C0812F0E9475031F9108950E94BF
:1009000072040895CF93DF93EC0103C021960E94F7
:10091000720488818823D1F7DF91CF9108951F93C6
:10092000182F0E946D044298419800C000C0812F8A
:100930000E9475031F9108950F931F938B01806888
:100940000E948F04C8010E9482041F910F91089594
:100950001F93162F80580E948F04812F0E947204CB
:100960001F91089587B1886787B987B1876087B974
:100970003A9A4298419800C000C0409A88B187785E
:10098000806288B900C000C0409800C000C088E202
:100990000E948F048FE00E948F0486E00E948F04E3
:1009A00081E00E948F040895A1E1B0E0EAEDF4E057
:1009B0000C94B6093C017F876E876A01FC0117829F
:1009C0001682838181FD03C06FEF7FEF6FC39E01AD
:1009D0002F5F3F4F398B288BF3012381EE85FF85F5
:1009E00023FD859123FF8191FF87EE87882309F4FA
:1009F0005AC3853251F4EE85FF8523FD859123FF8F
:100A00008191FF87EE87853229F490E0B3010E943F
:100A1000830BE2CF982F10E0882499241032B0F491
:100A20009B3269F09C3228F4903251F0933271F489
:100A30000BC09D3239F0903349F4116028C0126028
:100A4000146025C0186023C0106121C017FD2AC0A2
:100A5000892F80538A3078F416FF06C0FAE09F9EF3
:100A6000902C1124980E13C03AE0839E802C112400
:100A7000880E10620CC09E3221F416FD14C310645F
:100A800006C09C3611F4106802C0983659F4EE8501
:100A9000FF8523FD959123FF9191FF87EE87992391
:100AA00009F0BCCF892F8554833020F4812F8061D9
:100AB000905E07C0892F8556833008F09FC1812F33
:100AC0008F7E86FD02C076E0972E6FE3F62EF82229
:100AD000953619F4F0E4FF2A07C0963619F420E899
:100AE000F22A02C091109A94F7FE0AC03BE339152E
:100AF00018F45CE3B52E02C0B92CB39427E009C00A
:100B000047E0491520F4BB2447E0942EF7CF292D68
:100B1000BB24C60104969D878C87F6016081718194
:100B200082819381AE014F5F5F4F0B2D0E94620A5D
:100B30006C010981202E332400FF04C003FD02C094
:100B40001DE209C0F1FE02C01BE205C0F2FC02C0BA
:100B500010E001C010E2C1018C709070892BB9F1D6
:100B6000112311F483E001C084E0881510F088247B
:100B70000AC0881AF3FC07C080E290E0B3010E942B
:100B8000830B8A94C9F7112329F0812F90E0B301D8
:100B90000E94830B23FE03C00CE710E00EC000E8A8
:100BA00010E00BC0E114F10409F0805290E0B301B1
:100BB0000E94830B0F5F1F4F05C0EF2CFF24F0E155
:100BC000EF22FF24F8018491882361F714C1F7FE16
:100BD00012C0BC0C24FE04C08A81813309F4BA948B
:100BE0001B141CF0BB24B3942DC0F8E0FB1550F58A
:100BF00038E0B32E27C0F6FC25C0892D90E08C1577
:100C00009D054CF02CEFC2162FEFD20624F030E8F1
:100C1000F32A01C09A94992049F0E2E0F0E0EC0F49
:100C2000FD1FE90DF11D80818033A1F3F7FE0AC09D
:100C3000B92CB394892D90E0C816D90614F09924E4
:100C400001C09C18F7FC03C025E030E009C01C146B
:100C50001D041CF021E030E003C096012F5F3F4FE0
:100C6000112311F02F5F3F4F992029F0892D90E03B
:100C70000196280F391F882D90E02817390714F0A6
:100C8000882401C0821A4F2C5524C20189709070AB
:100C9000892B39F008C080E290E0B3010E94830BF9
:100CA0008A948820C1F7112329F0812F90E0B301A5
:100CB0000E94830B43FE07C008C080E390E0B301AD
:100CC0000E94830B8A948820C1F7F7FE46C08601F4
:100CD000D7FE02C000E010E076010894E11CF11C90
:100CE000E01AF10A41E050E04C0F5D1FE40EF51EE2
:100CF00026014B185108892D90E0AA24BB24A81A7C
:100D0000B90A5FEF0F3F150729F48EE290E0B301B7
:100D10000E94830BC016D10634F0401651061CF415
:100D2000F701808101C080E3015010400894E11C6C
:100D3000F11C0A151B052CF090E0B3010E94830BF7
:100D4000E0CF0C151D0539F49A81963318F49533CC
:100D500011F424FE81E390E04BC08A81813309F0D5
:100D60000F7E90E0B3010E94830B9920A1F08EE2E8
:100D700090E0B3010E94830B12E0E1E0F0E0EC0FA1
:100D8000FD1FE10FF11D1F5F808190E0B3010E9404
:100D9000830B9A9491F744FC03C085E690E002C06F
:100DA00085E490E0B3010E94830BD7FC05C0C11419
:100DB000D10441F404FF06C0D094C194D108D39467
:100DC0008DE201C08BE290E0B3010E94830B80E3CF
:100DD00005C08F5F26EF3FEFC20ED31E3AE0C31669
:100DE000D104BCF790E0B3010E94830BC601C0960A
:100DF000B3010E94830BCC84DD8452C1933631F061
:100E0000933799F0933509F059C023C0F6018081DA
:100E100089835E010894A11CB11C22E030E0C20E5F
:100E2000D31E21E0E22EF12C12C0F601A080B18089
:100E300016FD03C06FEF7FEF02C0692D70E022E066
:100E400030E0C20ED31EC5010E94570B7C011F77F4
:100E500013C0F601A080B18016FD03C06FEF7FEFD5
:100E600002C0692D70E022E030E0C20ED31EC50141
:100E70000E943A0B7C01106813FF07C01BC080E280
:100E800090E0B3010E94830B8A94882D90E0E816CD
:100E9000F906A8F30FC0F50117FD859117FF8191A1
:100EA0005F0190E0B3010E94830B81108A94089443
:100EB000E108F108E114F10471F7F2C0943611F081
:100EC000993689F517FF08C0F601208131814281EA
:100ED000538184E090E00AC0F601808191819C01F9
:100EE000442737FD4095542F82E090E0C80ED91E6C
:100EF0009FE6F92EF12257FF09C050954095309595
:100F000021953F4F4F4F5F4F90E8F92ACA01B90131
:100F1000AE014F5F5F4F2AE030E00E94AF0BE82E3A
:100F2000E889EE1A41C0953721F41F7E2AE030E0AF
:100F30001CC0197F9F3661F0903720F4983509F076
:100F4000B2C00FC0903739F0983709F0ACC004C078
:100F500028E030E00AC0106114FD146020E130E0A8
:100F600004C014FD166020E132E017FF08C0F6014E
:100F7000608171818281938144E050E008C0F60174
:100F800080819181BC0180E090E042E050E0C40E9D
:100F9000D51EAE014F5F5F4F0E94AF0BE82E588900
:100FA000E51A8FE7F82EF122F6FE0BC08EEFF8223D
:100FB000E91438F4F4FE07C0F2FC05C09FEEF922F4
:100FC00002C01E2D01C0192DF4FE0DC0FE01EE0D54
:100FD000F11D8081803319F4E9EEFE2208C01F5F05
:100FE000F2FE05C003C08F2D867809F01F5F0F2D1C
:100FF000F3FC14C0F0FE0FC0181510F09E2C0BC0AF
:101000009E2C980C911A182D06C080E290E0B30136
:101010000E94830B1F5F1815C0F304C0181510F44D
:10102000811A01C0882404FF0FC080E390E0B3015F
:101030000E94830B02FF1DC001FD03C088E790E002
:101040000EC088E590E00BC0802F867891F001FFFC
:1010500002C08BE201C080E2F7FC8DE290E0B301B8
:101060000E94830B06C080E390E0B3010E94830BD3
:101070009A94E914C0F3EA94E1E0F0E0EC0FFD1F6C
:10108000EE0DF11D808190E0B3010E94830BEE20F4
:1010900091F706C080E290E0B3010E94830B8A942E
:1010A0008820C1F799CCF30166817781CB016196E5
:1010B000E2E10C94D2090CD0A9C0A1D040F098D0A4
:1010C00030F021F45F3F19F08AC05111D3C08DC0B8
:1010D000AED098F39923C9F35523B1F3951B550B63
:1010E000BB27AA2762177307840738F09F5F5F4FFB
:1010F000220F331F441FAA1FA9F333D00E2E3AF03C
:10110000E0E830D091505040E695001CCAF729D055
:10111000FE2F27D0660F771F881FBB1F26173707A4
:101120004807AB07B0E809F0BB0B802DBF01FF27D4
:1011300093585F4F2AF09E3F510568F050C09AC007
:101140005F3FECF3983EDCF3869577956795B7950E
:10115000F7959F5FC9F7880F911D9695879597F929
:101160000895E1E0660F771F881FBB1F62177307A2
:101170008407BA0720F0621B730B840BBA0BEE1FB7
:1011800088F7E09508955BD088F09F5790F0B92FCD
:101190009927B751A0F0D1F0660F771F881F991FCC
:1011A0001AF0BA95C9F712C0B13081F062D0B1E03F
:1011B00008955FC0672F782F8827B85F39F0B93F4F
:1011C000CCF3869577956795B395D9F73EF49095CE
:1011D0008095709561957F4F8F4F9F4F089597F938
:1011E0009F6780E870E060E008959FEF80EC0895CD
:1011F00000240A94161617061806090608950024F6
:101200000A9412161306140605060895092E03946F
:10121000000C11F4882352F0BB0F40F4BF2B11F4E3
:1012200060FF04C06F5F7F4F8F4F9F4F089557FD42
:101230009058440F551F59F05F3F71F04795880F44
:1012400097FB991F61F09F3F79F0879508951216DB
:1012500013061406551FF2CF4695F1DF08C0161687
:1012600017061806991FF1CF869571056105089438
:101270000895E894BB2766277727CB0197F908954F
:101280000BD0C4CFB5DF28F0BADF18F0952309F0F2
:10129000A6CFABCF1124EECFCADFA0F3959FD1F339
:1012A000950F50E0551F629FF001729FBB27F00D14
:1012B000B11D639FAA27F00DB11DAA1F649F662769
:1012C000B00DA11D661F829F2227B00DA11D621FB8
:1012D000739FB00DA11D621F839FA00D611D221F72
:1012E000749F3327A00D611D231F849F600D211D56
:1012F000822F762F6A2F11249F5750408AF0E1F0F9
:1013000088234AF0EE0FFF1FBB1F661F771F881F41
:1013100091505040A9F79E3F510570F060CFAACF81
:101320005F3FECF3983EDCF3869577956795B7952C
:10133000F795E7959F5FC1F7FE2B880F911D969556
:10134000879597F9089597FB092E07260AD077FD10
:1013500004D043D006D000201AF4709561957F4FD9
:101360000895F6F7909581959F4F08952F923F929B
:101370004F925F926F927F928F929F92AF92BF92A5
:10138000CF92DF92EF92FF920F931F93CF93DF9351
:10139000CDB7DEB7CA1BDB0B0FB6F894DEBF0FBEAE
:1013A000CDBF09942A88398848885F846E847D84FB
:1013B0008C849B84AA84B984C884DF80EE80FD80FD
:1013C0000C811B81AA81B981CE0FD11D0FB6F89473
:1013D000DEBF0FBECDBFED010895AA1BBB1B51E1BF
:1013E00007C0AA1FBB1FA617B70710F0A61BB70B95
:1013F000881F991F5A95A9F780959095BC01CD013A
:101400000895A0E0B0E0E7E0FAE00C94BE09EC013A
:10141000A880B980CA80DB80A114B104C104D104C2
:1014200041F484E2A82E89EDB82E8BE5C82E87E022
:10143000D82EC601B5012DE133EF41E050E00E9406
:101440003C0C27EA31E440E050E00E941D0C7B0197
:101450008C01C601B5012DE133EF41E050E00E945F
:101460003C0CCA01B9012CEE34EF4FEF5FEF0E9444
:101470001D0C6E0D7F1D801F911F97FF04C06150D2
:10148000704080409048688379838A839B839B0166
:101490003F77C901CDB7DEB7EAE00C94DA090E94C4
:1014A000010A089585E691E00E94010A0895A0E0EE
:1014B000B0E08093650190936601A0936701B093BB
:1014C00068010895283008F027E03327DA01990FE2
:1014D000311D87FD916000966105710539F4326018
:1014E0002E5F3D9330E32A95E1F708959F3F30F05A
:1014F00080387105610509F03C5F3C5F3D93913098
:1015000008F08068911DDF93CF931F930F93FF9294
:10151000EF92192F987F9695E92F96959695E90F5A
:10152000FF27E252FF4F99273327EE24FF24A7011C
:10153000E70105900894079428F4360FE71EF81E7B
:10154000491F511D660F771F881F991F0694A1F729
:101550000590079428F4E70EF81E491F561FC11D79
:10156000770F881F991F661F0694A1F705900794AF
:1015700028F4F80E491F561FC71FD11D880F991F49
:10158000661F771F0694A1F70590079420F4490F72
:10159000561FC71FD81F990F661F771F881F0694F5
:1015A000A9F784911095177041F0D695C795579576
:1015B0004795F794E7941A95C1F7E4E8F0E068944A
:1015C0001590159135916591959105907FE27395F0
:1015D000E118F10A430B560BC90BD009C0F7E10C17
:1015E000F11E431F561FC91FD01D7EF4703311F426
:1015F0008A95E6CFE894015030F0080F0AF40027EE
:10160000021708F4202F2395022F7A3328F079E36C
:101610007D932A95E9F710C07D932A9589F6069463
:1016200097956795379517951794E118F10A430B2D
:10163000560BC90BD00998F023957E9173957A3398
:1016400008F070E37C932013B8F77E9170617D936E
:1016500030F0839571E37D9370E32A95E1F71124CF
:10166000EF90FF900F911F91CF91DF91992787FD08
:1016700090950895FC010590615070400110D8F7D5
:10168000809590958E0F9F1F0895FB01DC010D90B2
:101690000020E9F7119701900D920020E1F70895DD
:1016A000FB01DC0101900D920020E1F70895FC019F
:1016B0006150704001900110D8F7809590958E0F81
:1016C0009F1F0895FB019F01E8944230C4F045320A
:1016D000B4F44A3029F497FB1EF4909581959F4FFE
:1016E000642F77270E94ED09805D8A330CF0895DB5
:1016F0008193CB010097A1F716F45DE2519310821C
:10170000C9010C940D0C0F931F93CF93DF938C01A1
:10171000EB018B8181FF1BC082FF0DC02E813F81B9
:101720008C819D812817390764F4E881F981019340
:10173000F983E88306C0E885F985802F0995892B10
:1017400031F48E819F8101969F838E8302C00FEFBB
:101750001FEFC801DF91CF911F910F910895FA01FA
:10176000AA27283051F1203181F1E8946F936E7FE0
:101770006E5F7F4F8F4F9F4FAF4FB1E03ED0B4E0D1
:101780003CD0670F781F891F9A1FA11D680F791F12
:101790008A1F911DA11D6A0F711D811D911DA11D23
:1017A00020D009F468943F912AE0269F1124301933
:1017B000305D3193DEF6CF010895462F4770405DCE
:1017C0004193B3E00FD0C9F7F6CF462F4F70405D7D
:1017D0004A3318F0495D31FD4052419302D0A9F7D8
:1017E000EACFB4E0A6959795879577956795BA95D2
:1017F000C9F700976105710508959B01AC010A2E98
:1018000006945795479537952795BA95C9F7620F6E
:10181000731F841F951FA01D0895DC01FC01672F15
:1018200071917723E1F7329704C07C916D937083B7
:101830006291AE17BF07C8F30895629FD001739FEE
:10184000F001829FE00DF11D649FE00DF11D929F5C
:10185000F00D839FF00D749FF00D659FF00D99279B
:10186000729FB00DE11DF91F639FB00DE11DF91FBF
:10187000BD01CF011124089597FB092E05260ED036
:1018800057FD04D014D00AD0001C38F45095409570
:10189000309521953F4F4F4F5F4F0895F6F7909544
:1018A0008095709561957F4F8F4F9F4F0895A1E26E
:1018B0001A2EAA1BBB1BFD010DC0AA1FBB1FEE1FCA
:1018C000FF1FA217B307E407F50720F0A21BB30B15
:1018D000E40BF50B661F771F881F991F1A9469F791
:1018E00060957095809590959B01AC01BD01CF01ED
:0618F0000895F894FFCFFB
:1018F6004C6576656C200020202053796D6F6E2034
:1019060073617973202000436F6E67726174756C22
:101916006174696F6E732100526561636865642046
:101926006C766C200000808243000093430080A404
:10193600430080AE430080C3430000DC430080F2D6
:101946004300C0024400009343000093430080829A
:0A195600430000E943010000000017
:00000001FF
